:1000000009C00EC00DC00CC00BC00AC009C008C09A
:1000100007C006C011241FBECFE9CDBF14D061C0F8
:10002000EFCF20E030E054E10AC0C09A452F4A9556
:10003000F1F7C098452F4A95F1F72F5F3F4F2817EA
:1000400039079CF30895CF92DF92EF92FF920F93BE
:100050001F93CF93DF93B89A90E4C92E93E8D92EDB
:1000600088E6E82E87E0F82E08EC10E1C8E7D0E03B
:100070008DE490E0D6DFC6010197F1F780E190E0D2
:10008000D0DFC7010197F1F780E190E0CADFC80136
:100090000197F1F780E190E0C4DF88E792E0FE018C
:1000A0003197F1F70197D9F78DE490E0BADFC601F7
:1000B0000197F1F780E190E0B4DFC7010197F1F714
:1000C00080E190E0AEDFC8010197F1F780E190E0B8
:1000D000A8DF88EB9BE0FE013197F1F70197D9F794
:0600E000C7CFF894FFCF2A
:00000001FF
